:100000000C9434000C9451000C9451000C94510049
:100010000C9451000C9451000C9451000C9451001C
:100020000C9451000C9451000C9451000C9451000C
:100030000C9451000C9451000C9451000C945100FC
:100040000C9451000C9453000C9451000C945100EA
:100050000C9451000C9451000C9451000C945100DC
:100060000C9451000C94510011241FBECFEFD8E026
:10007000DEBFCDBF11E0A0E0B1E0E4E0F1E102C0FD
:1000800005900D92AA30B107D9F723E0AAE0B1E0BC
:1000900001C01D92A133B207E1F70E9488060C94BB
:1000A00080080C9400001F920F920FB60F9211243B
:1000B0008F939F93EF93FF9380910B01E82FF0E0D4
:1000C0009EB5EF5EFE4F90838F5F80930B01FF9193
:1000D000EF919F918F910F900FBE0F901F901895E9
:1000E000909108019F3F69F0981758F45E9A98170D
:1000F00038F45F985F9A9F5F909308019817C8F350
:1001000008955E9A5F985F9A5F985F9A5F985F9A8A
:100110005F985F9A5F985F9A5F985F9A5F985F9A1F
:100120005F985F9A9BB19F739BB95F9A1092080189
:1001300090E0DCCF8091C100877F8093C1008091E7
:10014000C2008F738093C2008BB18D7E8BB9599A98
:100150005C9A8BB18D7E8BB95C9A8BB18D7E8BB99D
:10016000599A5C9A80910D019BB19D7E9BB986FD49
:10017000599A5C9A9BB19D7E9BB985FD599A5C9A70
:100180009BB19D7E9BB984FD599A5C9A9BB19D7EE3
:100190009BB983FD599A5C9A9BB19D7E9BB982FD68
:1001A000599A5C9A9BB19D7E9BB981FD599A5C9A44
:1001B0009BB19D7E9BB980FD599A5C9A87EC809398
:1001C000C20088E08093C10081E090E09093C50078
:1001D0008093C4000895E0911001E295EF70F0E083
:1001E000E050FF4F908180910F0180FD9E5F8091D4
:1001F000C00086FFFCCF809108018F3F09F45EC0EC
:10020000891708F05BC05E9A891738F45F985F9A87
:100210008F5F809308018917C8F38091C100877FA1
:100220008093C1008091C2008F738093C2008BB114
:100230008D7E8BB9599A5C9A8BB18D7E8BB95C9A05
:100240008BB18D7E8BB9599A5C9A80910D019BB1CF
:100250009D7E9BB986FD599A5C9A9BB19D7E9BB908
:1002600085FD599A5C9A9BB19D7E9BB984FD599AF4
:100270005C9A9BB19D7E9BB983FD599A5C9A9BB118
:100280009D7E9BB982FD599A5C9A9BB19D7E9BB9DC
:1002900081FD599A5C9A9BB19D7E9BB980FD599ACC
:1002A0005C9A87EC8093C20088E08093C10081E073
:1002B00090E09093C5008093C40008955E9A5F9883
:1002C0005F9A5F985F9A5F985F9A5F985F9A5F986E
:1002D0005F9A5F985F9A5F985F9A5F985F9A8BB119
:1002E0008F738BB95F9A1092080180E08CCFCF9208
:1002F000DF92EF92FF920F931F93CF93DF931092B1
:100300000D019091C00096FFFCCF5E9A5F985F9AB6
:100310005F985F9A5F985F9A5F985F9A5F985F9A1D
:100320005F985F9A5F985F9A5F985F9A982F96950B
:10033000937088B18C7F892B88B990930E01A1E1CD
:10034000B2E060E040910801D0910D0180E4C82E38
:10035000CD2290E2D92EDD2220E1E22EED2238E0FE
:10036000F32EFD220D2F04701D2F1270D170C7ECDB
:1003700078E081E090E05C9111963C91119720919A
:10038000C00026FFFCCF4F3F11F04617C0F05E9A29
:100390005F985F9A5F985F9A5F985F9A5F985F9A9D
:1003A0005F985F9A5F985F9A5F985F9A5F985F9A8D
:1003B0002BB12F732BB95F9A1092080140E05E9A1F
:1003C000461738F45F985F9A4F5F409308014617CD
:1003D000C8F32091C100277F2093C1002091C20063
:1003E0002F732093C2002BB12D7E2BB9599A5C9AA2
:1003F0002BB12D7E2BB95C9A2BB12D7E2BB9599A3E
:100400005C9A2BB12D7E2BB9C110599A5C9A2BB1F5
:100410002D7E2BB9D110599A5C9A2BB12D7E2BB918
:10042000E110599A5C9A2BB12D7E2BB9F110599A93
:100430005C9A2BB12D7E2BB90111599A5C9A2BB184
:100440002D7E2BB91111599A5C9A2BB12D7E2BB9A7
:10045000D111599A5C9AC093C2007093C1009093D5
:10046000C5008093C400E52FF32F30E15191209116
:10047000C00025FFFCCF2091C00020642093C00065
:100480005093C600315091F71296ED91FC9113975D
:1004900051912091C00025FFFCCF2091C000206425
:1004A0002093C0005093C6003F5F303189F76F5FE3
:1004B0001496683009F05FCFDF91CF911F910F91B3
:1004C000FF90EF90DF90CF9008959F92AF92BF92F0
:1004D000CF92DF92EF92FF920F931F93CF93DF9310
:1004E00010920D019091C00096FFFCCF5E9A5F982C
:1004F0005F9A5F985F9A5F985F9A5F985F9A5F983C
:100500005F9A5F985F9A5F985F9A5F985F9A282FCB
:100510002695237098B19C7F922B98B920930E0159
:10052000CC24C394C822A0E0B1E050910801C0914E
:100530000D0160E4D62EDC2270E2E72EEC22E0E131
:10054000FE2EFC220C2F08701C2F1470DC2FD27092
:10055000C17077EC68E021E030E0BD908B2D90E039
:10056000880F991FFC01EE0FFF1FEF5EFD4FA0806B
:1005700091804091C00046FFFCCFCC2009F4ACC074
:10058000B394B3945F3F11F05B15C0F05E9A5F982F
:100590005F9A5F985F9A5F985F9A5F985F9A5F989B
:1005A0005F9A5F985F9A5F985F9A5F985F9A4BB186
:1005B0004F734BB95F9A1092080150E05E9A5B1539
:1005C00038F45F985F9A5F5F509308015B15C8F33A
:1005D0004091C100477F4093C1004091C2004F73DA
:1005E0004093C2004BB14D7E4BB9599A5C9A4BB1C6
:1005F0004D7E4BB95C9A4BB14D7E4BB9599A5C9A82
:100600004BB14D7E4BB9D110599A5C9A4BB14D7E8E
:100610004BB9E110599A5C9A4BB14D7E4BB9F11030
:10062000599A5C9A4BB14D7E4BB90111599A5C9A1B
:100630004BB14D7E4BB91111599A5C9A4BB14D7E1D
:100640004BB9D111599A5C9A4BB14D7E4BB9C1113E
:10065000599A5C9A7093C2006093C1003093C500B0
:100660002093C400EA2DF92D40E1B42EA1904091D1
:10067000C00045FFFCCF4091C00040644093C000E3
:10068000A092C600BA9491F7FC01EE0FFF1FED5E39
:10069000FD4F0190F081E02D90E141918091C000EB
:1006A00085FFFCCF8091C00080648093C0004093A0
:1006B000C600915091F781E0A430B80709F04DCF02
:1006C000DF91CF911F910F91FF90EF90DF90CF902E
:1006D000BF90AF909F9008955F3F11F05B15C0F001
:1006E0005E9A5F985F9A5F985F9A5F985F9A5F984B
:1006F0005F9A5F985F9A5F985F9A5F985F9A5F983A
:100700005F9A4BB14F734BB95F9A1092080150E05A
:100710005E9A5B1508F05CCF5F985F9A5F5F5093BD
:1007200008015B15C8F354CF10920D0188B18C7F7E
:1007300088B910920E015E9A5F985F9A9FEF90932E
:1007400008015E985F985F9A5F985F9A5F985F9ADA
:100750005F985F9A5F985F9A5F985F9A5F985F9AD9
:100760005F985F9A88B18C7F816088B981E08093BF
:100770000E015E9A5F985F9A5E985F985F9A5F98A5
:100780005F9A5F985F9A5F985F9A5F985F9A5F98A9
:100790005F9A5F985F9A5F985F9A88B18C7F82605A
:1007A00088B982E080930E015E9A5F985F9A5E98A6
:1007B0005F985F9A5F985F9A5F985F9A5F985F9A79
:1007C0005F985F9A5F985F9A5F985F9A5F985F9A69
:1007D00088B1836088B983E080930E015E9A5F9848
:1007E0005F9A5E985F985F9A5F985F9A5F985F9A4A
:1007F0005F985F9A5F985F9A5F985F9A5F985F9A39
:100800005F985F9A8091C100877F8093C10080913B
:10081000C2008F738093C2008BB18D7E8BB9599AC1
:100820005C9A8BB18D7E8BB95C9A8BB18D7E8BB9C6
:10083000599A5C9A8BB18D7E8BB95C9A8BB18D7E07
:100840008BB95C9A8BB18D7E8BB95C9A8BB18D7EA6
:100850008BB95C9A8BB18D7E8BB95C9A8BB18D7E96
:100860008BB95C9A8BB18D7E8BB95C9A87EC809347
:10087000C20088E08093C10081E090E09093C500C1
:100880008093C40090E28091C00085FFFCCF8091EE
:10089000C00080648093C0001092C600915099F708
:1008A0008091C00086FFFCCF88B18C7F88B9109200
:1008B0000E015E9A5F985F9A5F985F9A5F985F9A61
:1008C0005F985F9A5F985F9A5F985F9A5F985F9A68
:1008D0005F985F9A88B18C7F816088B981E080934E
:1008E0000E015E9A5F985F9A5F985F9A5F985F9A31
:1008F0005F985F9A5F985F9A5F985F9A5F985F9A38
:100900005F985F9A88B18C7F826088B982E080931B
:100910000E015E9A5F985F9A5F985F9A5F985F9A00
:100920005F985F9A5F985F9A5F985F9A5F985F9A07
:100930005F985F9A88B1836088B983E080930E01E5
:100940005E9A5F985F9A5F985F9A5F985F9A5F98E8
:100950005F9A5F985F9A5F985F9A5F985F9A5F98D7
:100960005F9A10920F01109210010C94EB008AB163
:1009700082618AB98AB1806C8AB987B1836087B98C
:10098000219A88B18C7F88B910920E015E9A5F9887
:100990005F9A5F985F9A5F985F9A5F985F9A5F9897
:1009A0005F9A5F985F9A5F985F9A5F985F9A9FEFF0
:1009B000909308015E985F985F9A5F985F9A5F983E
:1009C0005F9A5F985F9A5F985F9A5F985F9A5F9867
:1009D0005F9A5F985F9A88B18C7F816088B941E0A7
:1009E00040930E015E9A5F985F9A5F985F9A5F9856
:1009F0005F9A5F985F9A5F985F9A5F985F9A5F9837
:100A00005F9A5F985F9A5E985F985F9A5F985F9A27
:100A10005F985F9A5F985F9A5F985F9A5F985F9A16
:100A20005F985F9A5F985F9A88B18C7F826088B97F
:100A300032E030930E015E9A5F985F9A5F985F9AFA
:100A40005F985F9A5F985F9A5F985F9A5F985F9AE6
:100A50005F985F9A5F985F9A5E985F985F9A5F98D9
:100A60005F9A5F985F9A5F985F9A5F985F9A5F98C6
:100A70005F9A5F985F9A5F985F9A88B1836088B940
:100A800023E020930E015E9A5F985F9A5F985F9AC9
:100A90005F985F9A5F985F9A5F985F9A5F985F9A96
:100AA0005F985F9A5F985F9A5E985F985F9A5F9889
:100AB0005F9A5F985F9A5F985F9A5F985F9A5F9876
:100AC0005F9A5F985F9A5F985F9A8BB18D7E8BB9C2
:100AD000599A5C9A8BB18D7E8BB95C9A8BB18D7E65
:100AE0008BB95C9A8BB18D7E8BB95C9A8BB18D7E04
:100AF0008BB95C9A8BB18D7E8BB95C9A8BB18D7EF4
:100B00008BB95C9A8BB18D7E8BB95C9A8BB18D7EE3
:100B10008BB95C9A8BB18D7E8BB95C9A8BB18D7ED3
:100B20008BB95C9A8BB18D7E8BB95C9A8BB18D7EC3
:100B30008BB95C9A8BB18D7E8BB95C9A8BB18D7EB3
:100B40008BB9599A5C9A8BB18D7E8BB95C9A8BB1BB
:100B50008D7E8BB95C9A8BB18D7E8BB95C9A8BB193
:100B60008D7E8BB95C9A8BB18D7E8BB95C9A8BB183
:100B70008D7E8BB95C9A8BB18D7E8BB95C9A8BB173
:100B80008D7E8BB95C9A8BB18D7E8BB95C9A8BB163
:100B90008D7E8BB9599A5C9A8BB18D7E8BB9599A9F
:100BA0005C9A8BB18D7E8BB95C9A8BB18D7E8BB943
:100BB0005C9A8BB18D7E8BB95C9A8BB18D7E8BB933
:100BC0005C9A8BB18D7E8BB95C9A8BB18D7E8BB923
:100BD0005C9A8BB18D7E8BB95C9A8BB18D7E8BB913
:100BE0005C9A8BB18D7E8BB95C9A8BB18D7E8BB903
:100BF0005C9A8BB18D7E8BB95C9A8BB18D7E8BB9F3
:100C0000599A5C9A8BB18D7E8BB95C9A8BB18D7E33
:100C10008BB95C9A8BB18D7E8BB95C9A8BB18D7ED2
:100C20008BB95C9A8BB18D7E8BB95C9A8BB18D7EC2
:100C30008BB95C9A8BB18D7E8BB95C9A8BB18D7EB2
:100C40008BB9599A5C9A8BB18D7E8BB9599A5C9A03
:100C50008BB18D7E8BB95C9A88B18C7F88B91092EC
:100C60000E015E9A5F985F9A5F985F9A5F985F9AAD
:100C70005F985F9A5F985F9A5F985F9A5F985F9AB4
:100C80005F985F9A88B18C7F816088B940930E012C
:100C90005E9A5F985F9A5F985F9A5F985F9A5F9895
:100CA0005F9A5F985F9A5F985F9A5F985F9A5F9884
:100CB0005F9A88B18C7F826088B930930E015E9A0A
:100CC0005F985F9A5F985F9A5F985F9A5F985F9A64
:100CD0005F985F9A5F985F9A5F985F9A5F985F9A54
:100CE00088B1836088B920930E015E9A5F985F9AFD
:100CF0005F985F9A5F985F9A5F985F9A5F985F9A34
:100D00005F985F9A5F985F9A5F985F9A18B80895A6
:100D100081E392E0909312028093110281E792E0C6
:100D2000909314028093130281E492E09093160250
:100D30008093150281E892E0909318028093170245
:100D400081EB92E090931A028093190281EF92E076
:100D500090931C0280931B0281EC92E090931E0200
:100D600080931D0281E093E09093200280931F0204
:100D700081E592E0909322028093210281E992E042
:100D8000909324028093230281E692E090932602BE
:100D90008093250281EA92E09093280280932702B3
:100DA00081ED92E090932A028093290281E193E001
:100DB00090932C0280932B0281EE92E090932E026E
:100DC00080932D0281E293E09093300280932F0272
:100DD0000E94B7041092C5001092C4008091C20016
:100DE000876C8093C2008091C10088608093C100AD
:100DF00081E090E09093C5008093C4008CB580643E
:100E00008CBD8CB580688CBD78940E94940318B812
:100E100080E00E9470000E949A0070910C01872F60
:100E200090E007ECF8E0FF2EC1E0D0E020910B014C
:100E30002717E1F3FC01EF5EFE4F108117FDD0C0D4
:100E400016FFA7C0212F277020930F019C012F5F51
:100E50003F4F40910B0150E02417350731F0F90165
:100E6000EF5EFE4F208127FDE1CFE09110018E2F34
:100E70008F70E03408F0805F880F80930D01E29559
:100E8000EF70F0E0E050FF4F908110FD9E5F809189
:100E9000C00086FFFCCF809108018F3F11F08917B9
:100EA000C0F05E9A5F985F9A5F985F9A5F985F9ACA
:100EB0005F985F9A5F985F9A5F985F9A5F985F9A72
:100EC0005F985F9A8BB18F738BB95F9A109208010C
:100ED00080E05E9A891738F45F985F9A8F5F8093FD
:100EE00008018917C8F38091C100877F8093C100F2
:100EF0008091C2008F738093C2008BB18D7E8BB9BD
:100F0000599A5C9A8BB18D7E8BB95C9A8BB18D7E30
:100F10008BB9599A5C9A80910D019BB19D7E9BB9CA
:100F200086FD599A5C9A9BB19D7E9BB985FD599A25
:100F30005C9A9BB19D7E9BB984FD599A5C9A9BB14A
:100F40009D7E9BB983FD599A5C9A9BB19D7E9BB90E
:100F500082FD599A5C9A9BB19D7E9BB981FD599AFD
:100F60005C9A9BB19D7E9BB980FD599A5C9A0093D7
:100F7000C200F092C100D093C500C093C40010928B
:100F80000D0170910C017F5F70930C01872F90E031
:100F90004DCF15FD1CC014FDF6CF13FFF4CF812FEC
:100FA0008770672F6F5FA1E3B2E07F5790910B01CD
:100FB0009617E1F3E62FF0E0EF5EFE4F90819D93F0
:100FC000962F9F5F971709F45EC0692FEFCF80912E
:100FD000C00086FFFCCF0E94940370910C01D3CF18
:100FE000E12FEF77E09310019C012F5F3F4F40917D
:100FF0000B0150E02417350731F0D901AF5EBE4F29
:101000002C9126FD13CF812F8F70E03408F0805F84
:10101000880F80930D01E295EF70F0E0E050FF4FF4
:10102000908180910F0180FD9E5F8091C00086FFBE
:10103000FCCF809108018F3F11F08917C0F05E9AB4
:101040005F985F9A5F985F9A5F985F9A5F985F9AE0
:101050005F985F9A5F985F9A5F985F9A5F985F9AD0
:101060008BB18F738BB95F9A1092080180E05E9A02
:10107000891708F038CF5F985F9A8F5F80930801D7
:101080008917C8F330CF60930C0110FD0CC090910C
:101090000B01971741F0E72FF0E0EF5EFE4F9081D4
:1010A000987F983029F00E94650270910C016BCFF7
:1010B0004081477050E0282F30E02F5F3F4F4217AC
:1010C000530789F770930C0120E8362F3E57E32F22
:1010D000E20F90910B019E17E1F3F0E0EF5EFE4FFF
:1010E0009081E22FF0E0EF5CFD4F90832F5F79F766
:1010F0006F5760930C010E94770170910C0143CFF0
:04110000F894FFCF91
:0A1104000001040500010405FF00CE
:00000001FF
